:100000000C942A000C94BD000C9447000C944700FB
:100010000C9447000C9447000C9447000C94470044
:100020000C9447000C9447000C946F010C946501EC
:100030000C9447000C9447000C9447000C94470024
:100040000C9447000C9447000C9447000C94470014
:100050000C94470011241FBECFE5D8E0DEBFCDBF12
:1000600010E0A0E6B0E0E0EBF3E002C005900D92F6
:10007000A238B107D9F720E0A2E8B0E001C01D9294
:10008000A638B207E1F70E94F0000C94D6010C9458
:10009000000082B3806282BB0000000082B38F7DCB
:1000A00082BB08951ABA82B3806182BB82B3877F14
:1000B00082BB02C00E944900DF99FCCF8FEF8ABB50
:1000C0000895CF93C82F0E945200CBBB82B38F7E7E
:1000D00082BB82B3877F82BB0E9449001BBACF914B
:1000E000089581B3886381BB8FE59AEE0197F1F79C
:1000F00000C0000081E00E9461008FE39FE1019752
:10010000F1F700C0000088E30E94610087EC90E0F6
:100110000197F1F700C000008EE00E94610087ECBB
:1001200090E00197F1F700C000000895CF93C82F29
:100130000E945200CBBB82B38F7E82BB82B38860A9
:1001400082BB0E9449001BBACF910895CF93DF93E1
:10015000EC0103C021960E94960088818111FACF9C
:10016000DF91CF910895E62FF0E0E15AFF4F9081A3
:10017000890F81580E94610008951F920F920FB657
:100180000F9211248F939F9380918200909183000E
:10019000892B51F48EB581608EBD81E090E0909303
:1001A0008300809382000DC01EBC8CB59DB59093DA
:1001B0008500809384001DBC1CBC109283001092AB
:1001C00082009F918F910F900FBE0F901F901895F6
:1001D00081E085BB089515BA089589E085BB08952F
:1001E000CF93DF93CDB7DEB760970FB6F894DEBF3D
:1001F0000FBECDBF84B7806884BF84B7806884BFDA
:100200008FEF84BB0E9471008BEF81BB2FEF80E7E3
:1002100092E0215080409040E1F700C000000E9431
:1002200071008BB780648BBF85B7816085BF789480
:1002300082B3816082BB20E52A95F1F782B38E7F7D
:1002400082BB80918400909185006AE370E00E94F7
:100250007901E62EF72E062F172F82E690E00E94F6
:10026000A60062E081E00E94B30082E790E00E9475
:10027000A6004AE0BE016F5F7F4F8E2D9F2D0E942A
:10028000A101CE0101960E94A6008CE790E00E9499
:10029000A60062E08DE00E94B3008EE790E00E942D
:1002A000A60061E081E00E94B3000E94E8000B30EC
:1002B00011050CF0BDCF0E94EB000E94ED000F3144
:1002C0001105DCF30E94E800B3CF1F920F920FB626
:1002D0000F9211240F900FBE0F901F9018951F9230
:1002E0000F920FB60F9211240F900FBE0F901F9018
:1002F000189597FB072E16F4009407D077FD09D0C8
:100300000E948D0107FC05D03EF4909581959F4F8A
:100310000895709561957F4F0895AA1BBB1B51E10D
:1003200007C0AA1FBB1FA617B70710F0A61BB70B65
:10033000881F991F5A95A9F780959095BC01CD010A
:100340000895BB274A3031F4992322F4BDE29095F9
:1003500081959F4F0C94AD01BB27FB015527AA2720
:10036000880F991FAA1FA41710F0A41B8395505142
:10037000B9F7A05DAA3308F0A95DA193009779F7BA
:10038000B111B1931192CB010C94C601DC01FC01B7
:10039000672F71917723E1F7329704C07C916D93B9
:1003A00070836291AE17BF07C8F30895F894FFCF2A
:1003B000004044697374616E63652053656E736FAA
:1003C000720044697374616E63653D002000636D63
:0203D00000002B
:00000001FF
